:020000040800F2
:10000000600D0020C1010008C90C00081D0800088F
:100010006709000835020008FD150008000000000F
:10002000000000000000000000000000B510000803
:100030002D040008000000009D0D00081D1200089E
:10004000DB010008DB010008DB010008DB01000820
:10005000DB010008DB010008DB010008DB01000810
:10006000DB010008DB010008DB010008DB01000800
:10007000DB010008DB010008DB010008DB010008F0
:10008000DB010008DB010008DB010008DB010008E0
:10009000DB010008DB010008DB010008DB010008D0
:1000A000DB010008DB010008DB010008DB010008C0
:1000B000DB010008DB010008DB010008DB010008B0
:1000C000DB010008DB010008DB010008DB010008A0
:1000D000DB0100088D130008DB010008F5130008A0
:1000E000DB010008DB010008DB010008DB01000880
:1000F000DB010008DB010008DB010008DB01000870
:10010000DB010008DB010008DB010008DB0100085F
:10011000DB010008DB010008DB010008DB0100084F
:10012000DB010008DB010008DB010008DB0100083F
:10013000DB010008DB010008DB010008DB0100082F
:10014000DB010008DB010008DB010008DB0100081F
:10015000DB010008DB010008DB0100084514000892
:10016000DB010008DB010008DB010008DB010008FF
:10017000DB010008DB010008DB010008DB010008EF
:10018000DB010008DB0100083D130008DB0100086B
:10019000DB010008DB010008DB010008DB010008CF
:1001A000DB010008DB010008DB010008DFF80CD0F0
:1001B00000F02EF800480047C1190008600D00202B
:1001C0000648804706480047FEE7FEE7FEE7FEE7F1
:1001D000FEE7FEE7FEE7FEE7FEE7FEE7E1120008C6
:1001E000AD01000830B50B46014600202022012455
:1001F00009E021FA02F59D4205D303FA02F5491BF5
:1002000004FA02F52844151EA2F10102F1DC30BD0A
:10021000064C074D06E0E06840F0010394E8070053
:1002200098471034AC42F6D3FFF7C4FF741C0008A3
:10023000941C0008FEE7000030B502464FF6FF7040
:10024000064D07E012F8013B4340DBB2040A35F8E3
:1002500013006040491EC9B2F4D230BD741A0008C0
:10026000F0B587B006460121022000F099FD01217A
:10027000880400F0A3FD00248DF81A4001208DF8B9
:100280001B0002258DF819508DF81850C1020591F8
:100290001B4F05A9384600F05DFA8DF8185068022A
:1002A000059005A9384600F055FA07220A2138467C
:1002B00000F08EFA07220B21384600F089FA6420FC
:1002C00046430196ADF80840ADF80A40ADF80C4041
:1002D000ADF810400C20ADF80E000A4C01A92046E4
:1002E00001F026F900F02AF8012240F225512046BB
:1002F00001F003F90121204601F0CCF807B0F0BD70
:10030000000402400048004010B56020FFF7A8FF3D
:10031000074C0020A070E070064908870920207073
:1003200000F068FA6060BDE81040034800F067BF65
:100330005000002070000020F807002008B54FF49E
:10034000A06000F0F7FC27208DF8000001208DF858
:10035000010003218DF802108DF80300684600F0BB
:10036000B5FC08BD70B51A4DA878297888422ED3FF
:10037000184C207801282AD16078042827D1A07849
:10038000042824D100F036FA2179E27841EA0222E9
:1003900011494A85A379647943EA04238B8541F6A0
:1003A0004C5462434FF6FF74B2FBF4F2CA8541F637
:1003B0004C52534393FBF4F20A86AA88821A8A8726
:1003C0006860488F401C48870020E870A87070BDA6
:1003D00050000020F80600207000002070B5104C7E
:1003E000E078012803D10F48018F491C01870025BF
:1003F000A5700120E070607850B1094806210830EE
:10040000FFF71AFF064908318871000AC871657044
:10041000BDE87040024908220831034801F0FBB8EA
:10042000500000207000002000480040704700008D
:1004300070B501460F4DA868427842F080024270C4
:1004400081700321FFF7F8FEA968C870000A0871DF
:100450000024094EA868015D304601F0CBF8402128
:10046000304601F023F80028F9D0641C052CF1DB9C
:1004700070BD000024000020001001400149086008
:10048000704700000C3C024070B50646002500296C
:1004900005D0012927D0022928D04FF4407500F05B
:1004A00081F809281ED1134C206820F44070206088
:1004B000206828432060206820F0F8002060206831
:1004C00046F0020108432060206840F4803020603C
:1004D00000F068F8216821F002012160216821F014
:1004E000F801216070BD4FF48075D8E74FF40075B6
:1004F000D5E70000103C024009200D490A68D203EC
:1005000001D5012070470A68D20601D50620704740
:100510000A68D20501D5022070470A6812F0E00F80
:1005200001D00720704709688907FBD5082070476C
:100530000C3C02400248016841F0004101607047F4
:10054000103C024070B505460E4600F02BF8092815
:1005500013D10A4C206820F440702060206840F4D9
:1005600080702060206840F0010020602E8000F044
:1005700019F8216821F00101216070BD103C024092
:1005800005480068002805DA034804490C38016072
:100590000349016070470000103C02402301674599
:1005A000AB89EFCD08B509200090FFF7A5FF0090BB
:1005B00002E0FFF7A1FF00909DF800000128F8D0AD
:1005C0009DF8000008BD000001460020A1F1006276
:1005D0004FF480439A4204D320480844984201D201
:1005E000082070471E480844984201D210207047E6
:1005F0001C480844984201D2182070471A48084401
:10060000B0F5803F01D22020704718484FF40032E7
:100610000844904201D2282070471548084490426F
:1006200001D23020704713480844904201D238204C
:10063000704711480844904201D2402070470F484B
:100640000844904201D2482070470D480844904227
:1006500001D25020704758207047000000C0FFF7BB
:100660000080FFF70040FFF70000FFF70000FEF7F3
:100670000000FCF70000FAF70000F8F70000F6F7BA
:100680000000F4F710B5002305E030F8024B22F823
:1006900013405B1CDBB28B42F7D310BD2DE9F04158
:1006A00005460E461746FFF76BFFF320FFF7E6FE01
:1006B0002846FFF789FF044605EB4600FFF784FF55
:1006C000804608E002212046FFF7DEFE092800D020
:1006D000FEE70834A4B24445F4D900240AE037F810
:1006E00014102846FFF72EFF092800D0FEE7AD1CA6
:1006F000641CA4B2B442F2D3BDE8F041FFF71ABFC4
:100700007CB50121022000F04BFB4FF48054009493
:1007100000208DF8060002208DF8070001218DF8D9
:1007200004108DF805000A4E6946304600F012F8B4
:10073000650000956946304600F00CF821463046C9
:1007400000F056F82946304600F052F87CBD000013
:10075000000402402DE9F041002201274FF0030C74
:1007600007FA02F50B682B40AB422CD10668530008
:100770000CFA03F4A64306600E79D0F800809E4080
:1007800046EA080606600E79012E01D0022E12D12B
:100790008668A64386604E79D0F808809E4046EA77
:1007A000080686604668AE43466045688E79964086
:1007B000B6B235434560C568A543C560CC799C4059
:1007C000C3681C43C460521C102AC9D3BDE8F08121
:1007D00010B54B07DB0E9A40C90800EB8100016A97
:1007E0000F249C40A1430162016A1143016210BDC4
:1007F00001837047014840687047000038000020BE
:100800000A2806D204490A5C1AB100220A540120BF
:100810007047002070470000B8050020FEE710B5C3
:1008200045F2555000F032F8022000F023F840F66F
:10083000FF7000F025F800F015F8BDE8104000F05A
:1008400001B8000002494CF6CC4008607047000037
:100850000030004002494AF6AA20086070470000B4
:100860000030004002494AF6AA20086070470000A4
:1008700000300040014948607047000000300040EF
:10088000014988607047000000300040014908605D
:10089000704700000030004070B586B00121084666
:1008A00000F07EFA0121102000F096FA00248DF865
:1008B000164001208DF8170002258DF815508DF88F
:1008C0001450400204901C4E04A93046FFF742FF2A
:1008D0008DF814506902049104A93046FFF73AFFDD
:1008E00007220A213046FFF773FF0722092130460D
:1008F000FFF76EFF4FF4E1300090ADF80440ADF823
:100900000640ADF80840ADF80C400C20ADF80A00E8
:100910000A4C6946204600F00BFE00F011F8012257
:1009200040F22551204600F0E8FD0121204600F06C
:10093000B1FD06B070BD0000000002400010014093
:1009400008B54FF4A06000F0F5F925208DF80000FF
:1009500001208DF801008DF802008DF80300684633
:1009600000F0B4F908BDFEE70248C188491CC18007
:1009700070470000240000202DE9F043874CA06858
:100980004178002904D0CA1F082A01D3102902D9AE
:100990000120BDE8F0832179A1F10802F32A01D3F7
:1009A0000320F6E7891EC9B2FFF746FC2179A26849
:1009B000114411F8023D497843EA0121884201D0EF
:1009C0000320E6E7D078917840EA01215079137945
:1009D00040EA03205378DFF8C8C10126012B01D07B
:1009E000022B3CD1B0F5707F01D90320D1E70B1861
:1009F000C82B01D90220CCE7921C430707D0C308BB
:100A00005B1C02F8013B0D460023002721E0C308D0
:100A1000F7E73CF81580B8F1000F08D092F8008095
:100A200006FA03F948EA090882F8008007E092F81C
:100A3000008006FA03F928EA090882F800805B1CA6
:100A4000DBB2082B01D30023521C6D1CADB27F1CFE
:100A5000BFB28742DDD3A2689278521D6271A3684B
:100A600008275A78052A10D1C82901D3022090E717
:100A7000B0F57F4F02D020B103208AE72CF8116037
:100A800002E000222CF8112067715A780F2A23D136
:100A90000A18C82A01D902207BE70022DB1D0CEBD3
:100AA000410C002515E093F8008006FA02F918EAD7
:100AB000090F02D04FF0010801E04FF000082CF8B8
:100AC000028B521CD2B2082A01D300225B1C6D1C7F
:100AD000ADB28542E7D36771A368DFF8C8C05A7822
:100AE000032A01D0042A22D17D2801D9032050E70E
:100AF0000A18C82A01D902204BE70CEB4102450035
:100B00009D70DB1C00250CE0B2F800804FEA18282D
:100B100003F8018B92F8008003F8018B921C6D1C86
:100B2000ADB28542F0D3A2689278521D6271A3687B
:100B30005A78062A0CD1C82901D3022029E7A1F14D
:100B40006402142A00D266702CF8110026706771B6
:100B50005A78102A20D10A18C82A01D9022018E789
:100B6000DB1D0CEB410200250EE013F801CB4FEA30
:100B70000C2CA2F800C013F8018B48EA0C08A2F86C
:100B80000080921C6D1CADB28542EED32670643994
:100B9000142900D2667067710020FAE62400002054
:100BA000000200207000002030B599B0224D21488D
:100BB000A86000F58070E860A0F584640121B4F9B4
:100BC0007E014FF49062602809D0C02807D0B0F5AC
:100BD000C07F04D0904202D0A4F87E212970B4F9DD
:100BE0007C01401EFE2802D3A4F87C11297004F574
:100BF000BE7462802180A088401CA080FFF7FAFDAF
:100C00002861FFF79DFE6088642110FB01F0FFF76B
:100C100043FE6088642110FB01F3B4F9002007A1B2
:100C2000684600F0F9FD6946104800F00BFD19B068
:100C300030BD0000900300202400002050726F6738
:100C400072616D20496E697469616C697A65287397
:100C5000746174696F6E3A2025642C20626175643A
:100C6000726174653A2025640000000000100140A4
:100C700070B5134CE088052821D9A168E068A06010
:100C8000E160A17821710025A5700122E270082998
:100C900014D30C4E0078B6F97C1188420ED1FFF7C0
:100CA0006BFE10B1FFF7C4FB01E000F04DF8FFF759
:100CB000A1FD218A411AA6F882112061E58070BD4C
:100CC00024000020700000207047000030B50F2382
:100CD000C27801250178002A1FD0154A126802F453
:100CE000E062C2F5E062C2F30722C2F10404D3401D
:100CF0004278A24084781C401443220101F1E02193
:100D000081F80024007800F01F018D404009800028
:100D100000F1E020C0F8005130BD01F01F00854017
:100D20004809800000F1E020C0F8805130BD00008B
:100D30000CED00E0024908430249086070470000DA
:100D40000000FA050CED00E070B5124D6879801EC8
:100D5000C1B2A868FFF770FA6A79A9680A4402F874
:100D6000020C6A79000A114401F8010C00240A4EB1
:100D70000BE0A868015D304600F03CFC40213046A5
:100D800000F094FB0028F9D0641C68798442F0DB01
:100D900070BD0000240000200010014070470000DA
:100DA000054A002903D0116801431160704711689A
:100DB000814311607047000030380240054A002925
:100DC00003D01168014311607047116881431160BD
:100DD0007047000040380240054A002903D01168DE
:100DE0000143116070471168814311607047000032
:100DF0004438024070B5244B196801F00C01234CB3
:100E000000291ED0224E04291DD008291DD00460BF
:100E1000196801F0F00109091E4A545C0168E140BB
:100E200041601C6804F4E054A40A145D21FA04F43F
:100E300084601B6803F460435B0BD25CD140C160EB
:100E400070BD0460E4E70660E2E70F4A121F116814
:100E5000C1F38055116801F03F0135B1B6FBF1F1E6
:100E60001468C4F38814614305E0B4FBF1F114681D
:100E7000C4F3881461431268C2F30142521C520049
:100E8000B1FBF2F10160C3E7083802400024F4002E
:100E900040787D0114000020F0B587B0064601219E
:100EA0000420FFF77DFF01212020FFF795FF00249C
:100EB0008DF81A4001208DF81B0002258DF819507D
:100EC0008DF81850802105911B4F05A93846FFF772
:100ED00041FC8DF818504020059005A93846FFF7D1
:100EE00039FC082206213846FFF772FC0822072148
:100EF0003846FFF76DFC642046430196ADF8084084
:100F0000ADF80A40ADF80C40ADF810400C20ADF83B
:100F10000E000A4C01A9204600F00AFB00F02CF854
:100F2000012240F22551204600F0E7FA0121204637
:100F300000F0B0FA07B0F0BD000802400014014014
:100F400010B54FF4C070FFF7A7FF084C0020A07049
:100F5000E0700749088207202070FFF74BFC6060B3
:100F6000BDE81040034800F04AB9000040000020EE
:100F700070000020C406002008B54FF4A060FFF701
:100F8000D9FE47208DF8000001208DF801000321D3
:100F90008DF802108DF803006846FFF797FE08BD34
:100FA0002DE9F0412B4DA8782978884250D32A4E5C
:100FB000307801284CD17078032849D1B0780228C4
:100FC00046D1FFF717FC254C218821816288628178
:100FD000A288A2813279F37842EA03222280AB8888
:100FE000C31A9BB26380A3826860501AA0804FF43A
:100FF00080674FF4406CBA4207D2614505D900F5CD
:101000008056A680E68A761CE682624507D9B942F8
:1010100005D2A0F58050A080E08A401EE08233B166
:10102000A0884FF47A714843B0FBF3F0E080B4F944
:101030000220B4F904100A4800F0C1F8084800F092
:10104000B1F8E081608A401C60820020E870A870DE
:10105000BDE8F08140000020C405002070000020A1
:10106000C406002070B5104CE078012803D10F4869
:10107000018A491C01820025A5700120E07060787A
:1010800050B1094806210830FFF7D6F80649083163
:101090008871000AC8716570BDE870400249082275
:1010A0000831034800F0B7BA40000020700000206B
:1010B00000140140704700001CB50021019100910F
:1010C0002E4A106840F4803010604FF4A04310683E
:1010D00000F4003000900198401C0190009810B975
:1010E00001989842F3D11068800302D50120009046
:1010F00000E00091009801283FD12048403001686D
:1011000041F0805101601E49086840F44040086089
:101110001A48083003680360036843F4004303601F
:10112000036843F4A0530360041F164B2360136845
:1011300043F08073136013689B01FCD50A6842F486
:1011400080320A604A68D203FCD50A6842F4003251
:101150000A604A689203FCD50B4A40F2057111609F
:10116000016821F003010160016841F002010160A2
:101170000168C1F381010229FAD11CBD0038024087
:1011800000700040195A4007003C02400A2805D26E
:10119000034A22F81010143222F810107047000091
:1011A000900500208168002907D040684FF47A72CA
:1011B000504390FBF1F000B270470020704730B50B
:1011C00043685C184460038800EB4303B3F90C5098
:1011D000641B4460846814448460B3F92050641B29
:1011E00084609981018800EB41010A840188491CCF
:1011F00089B201800A2901D30021018030BD00237A
:101200000380438043608360002100EB41029381AF
:101210001384491C0A29F8DB7047000070B5FFF7FA
:10122000A3FB13484168491C4160016811B901687A
:10123000491E016000200F4B0124A3F11401A1F10C
:10124000140531F8102052B131F81020012A00D1D4
:101250001C5431F81020521E21F8102003E035F8FC
:10126000102021F81020401C0A28EADB70BD000085
:1012700038000020B805002010B5164842F2107161
:101280000068B0FBF1F0401E00214FF0E022B0F109
:10129000807F01D3012007E050610F4BF0201870D0
:1012A000916107201061002000B1FEE7106960F035
:1012B000010010610020094A02F1140302F1280420
:1012C00022F8101023F810102154401C0A28F7DBD4
:1012D00010BD00000000002023ED00E0900500207C
:1012E00010B51248016841F47001016010480168AE
:1012F00041F0010101600E4A0021083211600268CC
:101300000C4B1A400260031D0B4A1A60026822F45B
:101310008022026006480C300160FFF7CDFE0349D1
:101320004FF000608039086010BD000088ED00E0DB
:1013300000380240FFFFF6FE1030002470B5104C5C
:1013400040F22551204600F0B8F840B1204600F0A8
:101350004DF90C4B99784A1C9A700B4A505440F244
:1013600027752946204600F0A8F8002806D029460F
:101370002046BDE87040002200F0BFB870BD0000FC
:1013800000780040600000202C08002070B5164C4A
:1013900040F22551204600F090F8A8B1204600F018
:1013A00025F9C1B2114B0025D87860B11048B0F9C9
:1013B0007C01884202D0987800B9DD709A78501C80
:1013C0009870D8688154DD8040F227752946204600
:1013D00000F073F8002806D029462046BDE870408A
:1013E000002200F08AB870BD0010014024000020E7
:1013F0007000002070B5104C40F22551204600F0DE
:101400005CF840B1204600F0F1F80C4B99784A1C8A
:101410009A700B4A505440F227752946204600F036
:101420004CF8002806D029462046BDE8704000222E
:1014300000F063B870BD000000480040500000207C
:10144000F806002070B5104C40F22551204600F0FF
:1014500034F840B1204600F0C9F80C4B99784A1C8A
:101460009A700B4A505440F227752946204600F0E6
:1014700024F8002806D029462046BDE87040002206
:1014800000F03BB870BD0000001401404000002097
:10149000C4050020002904D0818941F400518181D4
:1014A0007047818921F400518181704702460020F4
:1014B00012880A4200D00120704770B5002440F61F
:1014C0006A12C1F3421301F01F05012606FA05F264
:1014D000012B0CD0022B0DD0838A1340090A8E40B9
:1014E000008830400BB100B10124204670BD8389D3
:1014F0001340F3E7038A1340F0E710B540F66A1390
:10150000C1F3421301F01F040121A140012B07D0B8
:10151000022B07D014303AB102680A43026010BDB2
:101520000C30F8E71030F6E702688A43026010BD1D
:101530007FB504460D46208A20F44051E8880843D0
:101540002082A08941F20C618843A9882A8911432D
:101550006A8902431143A181A08A20F44071A889BD
:101560000843A0826846FFF745FC1E48844202D02B
:101570001D48844201D1039800E00298A189090422
:1015800008D500EBC00101EB001029684900B0FB51
:10159000F1F007E000EBC00101EB001029688900C1
:1015A000B0FBF1F06422B0FBF2F109010B096FF01E
:1015B00018056B4300EB8300A3891D044FF0320331
:1015C00007D503EBC000B0FBF2F000F007000843C2
:1015D00006E003EB0010B0FBF2F000F00F00084350
:1015E00020817FBD00100140001401408088C0F3BD
:1015F00008007047C1F3080181807047FEE710B50D
:1016000004462046FFF7F6FF80212046FFF74EFFF5
:101610000028F9D010BD2DE9F04107460D461646C9
:1016200000240BE015F8011B3846FFF7E3FF80218B
:101630003846FFF73BFF0028F9D0641CB442F1DBC9
:10164000BDE8F08170B506460D4600243046295DA0
:10165000FFF7D5FF641C285D0028F7D140213046F4
:10166000FFF724FF0028F9D070BD0000F0B587B067
:10167000064601211020FFF793FB01218807FFF7A1
:101680009DFB00248DF81A4001208DF81B000225D7
:101690008DF819508DF81850010205911B4F05A9BE
:1016A0003846FFF757F88DF818508020059005A9A7
:1016B0003846FFF74FF8082207213846FFF788F829
:1016C000082211463846FFF783F864204643019606
:1016D000ADF80840ADF80A40ADF80C40ADF8104048
:1016E0000C20ADF80E000A4C01A92046FFF720FFA0
:1016F00000F02CF8012240F225512046FFF7FDFEB4
:1017000001212046FFF7C6FE07B0F0BD00100240E1
:101710000078004010B56020FFF7A8FF084C0020BB
:10172000A070E0700749A1F84C0007202070FFF777
:1017300061F86060BDE810400348FFF760BD00003D
:1017400060000020700000202C09002008B54FF434
:10175000A060FFF7EFFA52208DF8000001208DF80D
:10176000010003218DF802108DF803006846FFF791
:10177000ADFA08BD70B5114CA078217888421BD312
:101780000F4D2878012817D16878032814D1A8783C
:10179000022811D1FFF72EF82979EA7841EA0222CE
:1017A00008490A80A288821A4A826060088A401C1E
:1017B00008820020E070A07070BD00006000002072
:1017C0002C080020AE00002070B5104CE0780128F5
:1017D00003D10F480188491C01800025A570012014
:1017E000E070607850B1094806210830FEF724FD0A
:1017F000064908318871000AC8716570BDE87040FB
:101800000249082208310348FFF705BF60000020A5
:10181000BC000020007800400FB4084B10B504A9AC
:1018200002AA039800F01CF8044602A9002000F068
:10183000C1F8204610BC5DF814FB0000B519000883
:1018400002E008C8121F08C1002AFAD17047704789
:10185000002001E001C1121F002AFBD170470000E7
:101860002DE9FF4F89B09B460446002506E0252858
:101870000BD05A460B999047641C6D1C20780028A9
:10188000F5D10DB02846BDE8F08F0027B8460122FB
:10189000474900E0074314F8013F203B02FA03F0F8
:1018A0000842F7D120782E2819D114F8010F47F0FB
:1018B00004072A280ED06FF02F022078A0F1300103
:1018C00009290CD808EB880102EB410100EB010863
:1018D000641CF2E70A98641C50F8048B0A90207884
:1018E0000028CED0642808D0692806D075281ED0DC
:1018F0005A460B9990476D1C58E00A994FF00A0917
:1019000001C90A91002802DA40422D2102E039057E
:1019100004D52B218DF82010012103E0F90704D014
:101920002021F7E78A4608AE0DE00021FAE70A9980
:101930004FF00A0901C90A91F7E74946FEF752FC40
:10194000303106F8011D0028F7D1ADEB060000F19B
:101950002009780701D44FF00108C84502DDA8EB43
:10196000090000E000208046002706E008A85A464B
:10197000C05D0B9990476D1C7F1C5745F6DB04E05A
:1019800030205A460B9990476D1CB8F10001A8F120
:101990000108F5DC05E016F8010B5A460B99904753
:1019A0006D1CB9F10001A9F10109F4DC641C65E7C3
:1019B000092801000A68531C0B6010707047000072
:1019C000FFF75AFCFEF79CFE264A274D1646642177
:1019D0002846FEF757FEFFF7E7F8FFF7B1FAFEF7E4
:1019E00093FCFFF797FE4FF4FA710020FFF7CEFB50
:1019F00064210120FFF7CAFB4FF4FA610220FFF7D0
:101A0000C5FBFEF70CFF194CFFF732F9FFF7C8FAD8
:101A1000FEF7A8FCFFF7AEFE0020FEF7F1FE30B1A6
:101A2000FEF718FF1248016881F40051016001209F
:101A3000FEF7E6FE28B1FFF715FBFEF7CFFCFFF738
:101A4000C3FE0220FEF7DCFE0028DDD0207800284F
:101A5000DAD0324664212846FEF720FE00202070AE
:101A6000D2E7000038010020000001082400002017
:101A7000140402400000C1C081C1400101C3C00381
:101A8000800241C201C6C006800741C70005C1C52A
:101A900081C4400401CCC00C800D41CD000FC1CFEA
:101AA00081CE400E000AC1CA81CB400B01C9C009DA
:101AB000800841C801D8C018801941D9001BC1DB7A
:101AC00081DA401A001EC1DE81DF401F01DDC01D2A
:101AD000801C41DC0014C1D481D5401501D7C0174A
:101AE000801641D601D2C012801341D30011C1D15A
:101AF00081D0401001F0C030803141F10033C1F39A
:101B000081F240320036C1F681F7403701F5C03529
:101B1000803441F4003CC1FC81FD403D01FFC03FE9
:101B2000803E41FE01FAC03A803B41FB0039C1F9D9
:101B300081F840380028C1E881E9402901EBC02B39
:101B4000802A41EA01EEC02E802F41EF002DC1ED29
:101B500081EC402C01E4C024802541E50027C1E749
:101B600081E640260022C1E281E3402301E1C02159
:101B7000802041E001A0C060806141A10063C1A359
:101B800081A240620066C1A681A7406701A5C06529
:101B9000806441A4006CC1AC81AD406D01AFC06FE9
:101BA000806E41AE01AAC06A806B41AB0069C1A9D9
:101BB00081A840680078C1B881B9407901BBC07B79
:101BC000807A41BA01BEC07E807F41BF007DC1BD29
:101BD00081BC407C01B4C074807541B50077C1B749
:101BE00081B640760072C1B281B3407301B1C07159
:101BF000807041B00050C190819140510193C05319
:101C0000805241920196C056805741970055C19528
:101C100081944054019CC05C805D419D005FC19FE8
:101C2000819E405E005AC19A819B405B0199C059D8
:101C3000805841980188C04880494189004BC18B38
:101C4000818A404A004EC18E818F404F018DC04D28
:101C5000804C418C0044C184818540450187C04748
:101C6000804641860182C042804341830041C18158
:101C700081804040941C000800000020700000009B
:101C800040180008041D000870000020F00C00003F
:101C9000501800080095BA0A00000000000000007B
:101CA0000102030406070809000000000102030402
:101CB00001020304060708090000000000000000FC
:101CC0000000000000000000000000000000000014
:101CD00000000000550100000000000001030000AA
:101CE0000001000055010000000000000104010097
:101CF0000002000055010000000000000103005533
:041D000000010000DE
:04000005080001AD41
:00000001FF
